:020000040800F2
:100000007014002099010008191F0008D31A000875
:10001000151F00085B020008F92500080000000019
:1000200000000000000000000000000001010008C6
:100030005F02000800000000450100082D200008B4
:10004000B3010008B3010008B3010008B3010008C0
:10005000B3010008B3010008B3010008B3010008B0
:10006000B3010008B301000875020008B3010008DD
:10007000B3010008B3010008B3010008B301000890
:10008000B3010008B3010008B3010008B301000880
:10009000B3010008B3010008B30100087F020008A3
:1000A000B3010008B3010008B3010008B301000860
:1000B000B3010008B3010008B3010008B301000850
:1000C000B3010008B3010008B3010008B301000840
:1000D000B3010008B3010008B3010008B301000830
:1000E00061020008B3010008B3010008DFF80CD07A
:1000F00000F076F8004800477529000870140020C9
:10010000224B19680868B0E8F00F80F30988BFF344
:100110006F8F4FF0000080F311884EF00D0E704786
:100120000000000006480068006880F3088862B696
:1001300061B6BFF34F8FBFF36F8F00DF00BF00BF0B
:1001400008ED00E0EFF30980BFF36F8F0F4B1A68E3
:1001500020E9F00F106008B54FF0500080F31188CF
:10016000BFF34F8FBFF36F8F03F00CFB4FF0000016
:1001700080F31188BDE8084019680868B0E8F00FFE
:1001800080F30988BFF36F8F704700BF40000020E5
:10019000EFF3058070470000064880470648004797
:1001A000FEE7FEE7FEE7FEE7FEE7FEE7FEE7FEE727
:1001B000FEE7FEE7D9200008ED00000840EA010351
:1001C0009B0703D009E008C9121F08C0042AFAD20D
:1001D00003E011F8013B00F8013B521EF9D27047D1
:1001E000064C074D06E0E06840F0010394E8070084
:1001F00098471034AC42F6D3FFF77CFF783C0008F8
:10020000983C000870B58C1810F8015B15F00703D6
:1002100001D110F8013B2A1106D110F8012B03E09F
:1002200010F8016B01F8016B5B1EF9D12B0705D4A7
:100230000023521E0DD401F8013BFAE710F8013BF0
:10024000CB1A921C03E013F8015B01F8015B521E0C
:10025000F9D5A142D8D3002070BD00BFFEE770479A
:1002600010B54FF4806000F0ABF84FF4006000F080
:10027000A7F810BD10B5102000F0A2F810BD10B501
:10028000202000F09DF810BD70B50546FF24002029
:100290000BE000EB4001464A02EB01110988A9423C
:1002A00001D1044603E0411CC8B20228F1DB00BFC3
:1002B000FF2C00D170BD29463E4800F01DFA0028F1
:1002C0005BD104EB44003A4901EB0010C06A0068BE
:1002D000406A04EB4401364A02EB0111486004EB2A
:1002E0004400114601EB0010406804EB440102EBAE
:1002F00001114969884214D304EB4400114601EB13
:100300000010406804EB440102EB011109698842C6
:1003100007D8002004EB440102EB011181F828000A
:1003200039E004EB4400224901EB0010406804EB83
:1003300044011F4A02EB0111C968884214D304EB3F
:100340004400114601EB0010406804EB440102EB4D
:1003500001118968884207D8012004EB440102EBAF
:10036000011181F8280016E0022004EB4401104A34
:1003700002EB011181F828000DE0002004EB44019C
:100380000B4A02EB0111C96A0968486204EB440197
:1003900002EB01114860202D02D1012006490870AE
:1003A000102D02D101200549087000BF82E700002E
:1003B0006C010020000C0140CD010020CC01002088
:1003C00010B5044604480068204020B1024804608B
:1003D0002046FFF759FF10BD140401402DE9F847EE
:1003E00003460024002000258446002700226EE1F9
:1003F0004FF0010808FA02F4D1F8008008EA04007E
:10040000A0427DD1DFF8D0A2D1F80480A8EB0A0980
:10041000D0453AD014DCB8F1030F50D009DCB8F164
:10042000000F31D0B8F1010F1CD0B8F1020F49D143
:1004300020E0B8F1110F18D0B8F1120F42D11EE030
:10044000B9F5881F25D006DCB9F5803F20D0B9F575
:10045000801F37D11AE0B9F5001F18D0B9F5041F75
:1004600030D117E0D1F80CC02DE0D1F80C8008F1A4
:10047000040C28E0D1F80C8008F1080C23E0D1F836
:100480000C8008F10C0C1EE000BF00BF00BF00BFD5
:1004900000BF00BFD1F80880B8F1000F02D14FF0C3
:1004A000040C0BE0D1F80880B8F1010F03D14FF034
:1004B000080C1C6102E04FF0080C5C6103E04FF097
:1004C000000C00E000BF00BFFF2801D8984601E003
:1004D00003F104084646FF2802D84FEA820803E0E9
:1004E000A2F108084FEA88084746D6F800804FF086
:1004F0000F0909FA07F928EA09080CFA07F900E0D8
:1005000088E048EA0908C6F80080D1F8048008F0BD
:100510008058B8F1805F7DD100BFDFF8C081D8F886
:10052000188048F00108DFF8B491C9F81880C8466F
:10053000D8F8188008F00108CDF8008000BF00BF8F
:100540004FEAB9384FEA920958F829504FEA8278B1
:100550004FEA18794FF00F0808FA09F825EA08055C
:10056000DFF87C81434502D14FF0000816E0DFF848
:100570007481434502D14FF001080FE0DFF8688134
:10058000434502D14FF0020808E0DFF8608143459F
:1005900002D14FF0030801E04FF004084FEA8279DE
:1005A0004FEA197908FA09F848EA0505DFF84081A9
:1005B0004FEA920948F82950D1F8048008F48038AD
:1005C000B8F5803F0AD1DFF82C81D8F8008048EADE
:1005D0000008DFF82091C9F8008009E0DFF81481F5
:1005E000D8F8008028EA0008DFF80891C9F80080F0
:1005F000D1F8048008F40038B8F5003F10D1DFF8D6
:10060000F48008F10408D8F8008048EA0008DFF810
:10061000E49000E05AE009F10409C9F800800DE017
:10062000DFF8D08008F10408D8F8008028EA000834
:10063000DFF8C09009F10409C9F80080D1F80480FE
:1006400008F48018B8F5801F0ED1DFF8A88008F1F3
:100650000808D8F8008048EA0008DFF8989009F107
:100660000809C9F800800DE0DFF8888008F1080863
:10067000D8F8008028EA0008DFF8789009F1080926
:10068000C9F80080D1F8048008F40018B8F5001FFC
:100690000ED1DFF8608008F10C08D8F8008048EA35
:1006A0000008DFF8509009F10C09C9F800800DE04E
:1006B000DFF8408008F10C08D8F8008028EA00082C
:1006C000DFF8309009F10C09C9F80080521C102A9B
:1006D000FFF48EAEBDE8F887000011100010024054
:1006E00000080140000C01400010014000140140CE
:1006F0000800014000040140024693680B400BB122
:10070000012000E0002070470AB1016101E00B0404
:100710000361704701480068704700000000002036
:100720000348006803490978084401490860704794
:10073000000000200800002010B50848006840F0C4
:10074000100006490860032000F0C2F80F2000F0F6
:1007500007F800F02BF8002010BD00000020024038
:1007600070B504460E4800784FF47A71B1FBF0F092
:100770000C490968B1FBF0F5284600F009FE08B104
:10078000012070BD102C07D200222146501E00F01F
:1007900060F80548046001E00120F2E70020F0E77E
:1007A000080000207C0000200400002008B500BFE5
:1007B0001F48806940F001001D4988610846806932
:1007C00000F00100009000BF00BF032000F080F89F
:1007D000002211466FF00B0000F03BF8002211469A
:1007E0006FF00A0000F035F8002211466FF00900A2
:1007F00000F02FF800221146501F00F02AF80022C6
:100800001146101F00F025F800220F21901E00F065
:1008100020F800220F21501E00F01BF800BF0549F0
:10082000486820F0E06040F00070486000BF08BDFC
:10083000001002400000014000BF00F01F02012133
:1008400091404209920002F1E022C2F8001100BF7B
:1008500070472DE9F05F80460D461646002701F0EF
:100860005DFB074639462A46334601F00700C0F1D2
:10087000070ABAF1040F02D94FF0040A01E0C0F1EF
:10088000070AD14600F1040ABAF1070F02D24FF06D
:10089000000A01E0A0F1030AD4464FF0010A0AFA67
:1008A00009FAAAF1010A0AEA020A0AFA0CFA4FF056
:1008B000010B0BFA0CFBABF1010B0BEA030B4AEA41
:1008C0000B042146404601F031FBBDE8F09F0000DB
:1008D00000BF00F00702064B19684FF6FF031940EE
:1008E000044B0B4343EA0221014B196000BF7047E0
:1008F0000CED00E00000FA05012001490862704794
:1009000000000E422DE9F04385B006463DA30FCB13
:1009100001AC0FC43FA0006800904FF00008002514
:1009200000270024A146012E30D0022E58D0102ED0
:1009300061D139484468006800F0807000B301A8B4
:10094000C4F38341475C04F4803070B1324840689E
:10095000C0F340401DF8008004F4803040B12F48BF
:10096000B0FBF8F000FB07F502E02D4807FB00F5AF
:100970002948406800F48000B0F5800F01D1A946F5
:1009800003E068000321B0FBF1F935E02248046A76
:1009900004F44070B0F5807F05D104F0020010B17E
:1009A0004FF400491BE004F44070B0F5007F07D11C
:1009B0001948406A00F0020010B149F640490EE0C3
:1009C00004F44070B0F5407F07D11348006800F48C
:1009D000003010B14FF2244901E04FF000090BE064
:1009E00000F0A0F90C494968C1F38131491C490064
:1009F000B0FBF1F900E000BF00BF484605B0BDE81C
:100A0000F083000002030405060708090A0B0C0D19
:100A10000E0F1010010200000010024000127A00B8
:100A200000093D00F8B5044600260025207800F0B6
:100A3000010000286BD000274348C06900F08050B7
:100A400070B900BF4048C06940F080503E49C8615D
:100A50000846C06900F08050009000BF00BF012729
:100A60003A48006800F48070B0B93848006840F433
:100A7000807036490860FFF74DFE064606E0FFF736
:100A800049FE801B642801D90320F8BD2F48006867
:100A900000F480700028F2D02B48006A00F4407502
:100AA0002DB3A08800F44070A84220D02648006AE8
:100AB00020F4407501202649086000200860224883
:100AC000056205F0010090B1FFF724FE064608E03C
:100AD000FFF720FE801B41F28831884201D90320B4
:100AE000D3E71948006A00F002000028F0D0164849
:100AF000006A20F440706168084313490862012FBE
:100B000004D10846C06920F08050C86100BF207839
:100B100000F00200022807D10B48406820F4404052
:100B2000A168084308494860207800F010001028A8
:100B300007D10548406820F48000E1680843024975
:100B400048600020A1E70000001002400070004053
:100B50004004424270B504460D46002662480068D3
:100B600000F00700A8420ED25F48006820F007009E
:100B700028435D4908600846006800F00700A84265
:100B800001D0012070BD207800F00200022807D1BA
:100B90005648406820F0F000A16808435349486077
:100BA000207800F0010000285DD06068012806D19F
:100BB0004E48006800F4003090B90120E2E7606818
:100BC000022806D14948006800F0007040B90120B1
:100BD000D8E74648006800F0020008B90120D1E7D4
:100BE0004248406820F00300616808433F4948607C
:100BF000FFF790FD06466068012810D108E0FFF776
:100C000089FD801B41F28831884201D90320B9E770
:100C10003648406800F00C000428F0D123E06068FA
:100C2000022810D108E0FFF775FD801B41F28831E2
:100C3000884201D90320A5E72C48406800F00C0049
:100C40000828F0D10FE008E0FFF764FD801B41F2B7
:100C50008831884201D9032094E72448406800F095
:100C60000C000028F0D12048006800F00700A842DE
:100C70000ED91D48006820F0070028431A49086073
:100C80000846006800F00700A84201D0012079E77B
:100C9000207800F00400042807D11448406820F4AC
:100CA000E060E168084311494860207800F00800DE
:100CB000082808D10D48406820F46050216940EAB6
:100CC000C1000A49486000F03DF808494968C1F38D
:100CD0000311074A515CC840064908600F20FFF71E
:100CE0003FFD00204EE700000020024000100240BF
:100CF000D83B00087C0000200148006870470000D5
:100D00007C00002000B5FFF7F7FF04494968C1F3F4
:100D10000221034A515CC84000BD0000001002409F
:100D2000E83B000800B5FFF7E7FF04494968C1F355
:100D3000C221034A515CC84000BD000000100240BF
:100D4000E83B0008F0B585B00FF26C0C9CE8E010B1
:100D500001A8A0E8E0101CA52D6800950021002244
:100D6000002300240020194D696801F00C05F5B13D
:100D7000042D02D0082D19D101E0154819E001AD6C
:100D8000C1F38346AC5D01F4803555B10F4D6D68FC
:100D9000C5F340451DF805200D4D6543B5FBF2F345
:100DA00002E00C4D04FB05F3184602E000BF0848C2
:100DB00000BF00BF05B0F0BD020304050607080927
:100DC0000A0B0C0D0E0F1010010200000010024063
:100DD00000127A0000093D00F8B50446002520788D
:100DE00000F00100002878D0F848406800F00C00BE
:100DF00004280CD0F548406800F00C00082811D1F8
:100E0000F248406800F48030B0F5803F0AD1EF48E6
:100E1000006800F4003000285FD0606800285CD1D2
:100E20000120F8BD00BF6068B0F5803F06D1E748FB
:100E3000006840F48030E549086028E0606858B9EF
:100E4000E248006820F48030E04908600846006805
:100E500020F4802008601AE06068B0F5A02F0BD164
:100E6000DA48006840F48020D849086008460068E5
:100E700040F4803008600AE0D448006820F48030F4
:100E8000D24908600846006820F48020086000BF4E
:100E9000606888B1FFF73EFC054606E0FFF73AFCC4
:100EA000401B642801D90320BBE7C848006800F450
:100EB00000300028F2D010E0FFF72CFC054606E0D9
:100EC000FFF728FC401B642801D90320A9E7BF488D
:100ED000006800F400300028F2D1207800F0020011
:100EE000022857D1B948406800F00C0050B1B7480B
:100EF000406800F00C00082818D1B448406800F49D
:100F0000803098B9B148006800F0020020B1206933
:100F1000012801D0012084E7AC48006820F0F800E7
:100F2000616940EAC100A949086033E02069E8B17D
:100F30000120A7490860FFF7EDFB054606E0FFF733
:100F4000E9FB401B022801D903206AE79F4800689B
:100F500000F002000028F2D09C48006820F0F80061
:100F6000616940EAC1009949086013E0002098498E
:100F70000860FFF7CFFB054606E0FFF7CBFB401B01
:100F8000022801D903204CE79048006800F00200D5
:100F90000028F2D1207800F0080008282DD1A0699F
:100FA000B8B101208B490860FFF7B4FB054606E0A5
:100FB000FFF7B0FB401B022801D9032031E783482B
:100FC000406A00F002000028F2D0012000F0C2FFC9
:100FD00013E000207F490860FFF79CFB054606E010
:100FE000FFF798FB401B022801D9032019E7774837
:100FF000406A00F002000028F2D1207800F00400DE
:10100000042873D100267148C06900F0805070B97F
:1010100000BF6E48C06940F080506C49C861084606
:10102000C06900F08050009000BF00BF01266A48F0
:10103000006800F48070B0B96748006840F48070C0
:1010400065490860FFF766FB054606E0FFF762FBAF
:10105000401B642801D90320E3E65F48006800F4E0
:1010600080700028F2D000BFE068012806D1574800
:10107000006A40F001005549086227E0E06858B96D
:101080005248006A20F00100504908620846006A90
:1010900020F00400086219E0E06805280BD14B48F5
:1010A000006A40F00400494908620846006A40F0BE
:1010B000010008620AE04548006A20F00100434947
:1010C00008620846006A20F00400086200BFE06879
:1010D000A0B1FFF71FFB054609E0FFF71BFB401B14
:1010E00041F28831884202D903209AE622E037484B
:1010F000006A00F002000028EFD012E0FFF70AFBC0
:10110000054608E0FFF706FB401B41F288318842A4
:1011100001D9032085E62D48006A00F0020000286E
:10112000F0D1012E05D12948C06920F0805027490F
:10113000C86100BFE069C8B32448406800F00C00F3
:10114000082860D0E069022848D1002020490866BC
:10115000FFF7E0FA054606E0FFF7DCFA401B02283D
:1011600001D903205DE61948006800F000700028EE
:10117000F2D1206AB0F5803F07D11448406820F4CE
:101180000030A168084311494860D4E908010843C8
:101190000E49496821F4741108430C494860012044
:1011A0000B490866FFF7B6FA054607E02DE0FFF7A2
:1011B000B1FA401B022801D9032032E60348006837
:1011C00000F000700028F2D01FE000000010024084
:1011D00000004242800442420070004000200C495E
:1011E0000866FFF797FA054606E0FFF793FA401BFB
:1011F000022801D9032014E60648006800F00070B8
:101200000028F2D101E001200BE6002009E60000F1
:10121000000042420010024070B5044600250CB99F
:10122000012070BD607C20B900202074204600F0B1
:101230005BF802206074204600F076F818B10420B4
:1012400060740120EDE7204600F098FE18B10420FC
:1012500060740120E5E72068406820F007002168FD
:101260004860A06828B11F48006820F001001D49AF
:1012700008601C48001F006820F46070A1680843E3
:101280001849091F08606068401C08B1656809E0DA
:101290000120FFF737FB05461DB9042060740120CB
:1012A000BFE76D1E2068806820F00F0040EA1540FF
:1012B000216888602068C06865F30F002168C860F5
:1012C000204600F078FE18B1042060740120A8E7E1
:1012D0000021E17301216173A1730120607400207A
:1012E0009FE70000306C004038B504460B49206889
:1012F000884212D1FFF700FB00BF0948C06940F0E7
:1013000000600749C8610846C06900F000600090AD
:1013100000BF00BF01200349086038BD002800401D
:10132000001002403C04424270B5044600250CB94E
:10133000012070BD2068406820F0080021684860E6
:10134000FFF7E8F9054607E0FFF7E4F9401BB0F5C1
:101350007A7F01D90320ECE72068406800F008009C
:101360000028F1D00020E4E7042808D14FF0E02164
:10137000096941F004014FF0E022116107E04FF0EC
:10138000E021096921F004014FF0E022116170476A
:1013900070B504462546681EB0F1807F01D3012058
:1013A0000FE0681E4FF0E02148610F214FF0FF3041
:1013B00000F0BCFD00204FF0E021886107200861AB
:1013C000002070BD10B50346002200BF93F83C001A
:1013D000012801D1022010BD012083F83C0000BF8C
:1013E00022F0FF00CC6840EA040222F440708C68CE
:1013F00040EA040222F480604C6840EA040222F4CD
:1014000000600C6840EA040222F480500C6940EA53
:10141000040222F400504C6940EA040222F48040A5
:101420008C6940EA040222F400408C6940EA04021C
:101430001868426400BF002083F83C0000BF00BF72
:10144000C9E7024600BF92F83C00012801D1022002
:101450007047012082F83C0000BF022082F83D0066
:101460001068406820F07000136858601068406889
:101470000B681843136858601068806820F080007B
:1014800013689860106880684B6818431368986008
:10149000012082F83D0000BF002082F83C0000BF20
:1014A00000BFD5E710B504460CB9012010BD94F873
:1014B0003D0028B9002084F83C00204600F00CF8DC
:1014C000022084F83D00211D206800F029FE012043
:1014D00084F83D000020E9E708B51B4A0168914205
:1014E0000DD100BF1949896941F40061174A916122
:1014F0001146896901F40061009100BF23E0144A9C
:10150000016891420DD100BF1049C96941F0020143
:101510000E4AD1611146C96901F00201009100BF74
:1015200011E00C4A016891420DD100BF0749C96919
:1015300041F00401054AD1611146C96901F0040175
:10154000009100BF00BF08BD002C01400010024008
:1015500000040040000800400146022081F83D00E0
:101560000868006840F001000A681060012081F8F6
:101570003D00002070472DE9F04104460D4600264D
:1015800000BF94F83C00012802D10220BDE8F081A0
:10159000012084F83C0000BF022084F83D00206850
:1015A000866826F0770626F47F46206886602868DD
:1015B00050283BD00CDC202860D004DC002853D01D
:1015C000102865D155E030285DD0402860D141E039
:1015D000602835D070280DD0B0F5805F03D0B0F50D
:1015E000005F55D115E02068806820F00700216871
:1015F00088604EE0D5E902136A68206800F0D8FDE3
:101600002068866826F0770646F0770620688660B0
:101610003FE0D5E902136A68206800F0C9FD206840
:10162000806840F480402168886032E0EA68696838
:10163000206800F09BFE5021206800F0C5FD28E0E6
:10164000EA686968206800F0A6FE6021206800F062
:10165000BBFD1EE0EA686968206800F087FE402153
:10166000206800F0B1FD14E00021206800F0ACFD1E
:101670000FE01021206800F0A7FD0AE0202120687B
:1016800000F0A2FD05E03021206800F09DFD00E0A3
:1016900000BF00BF012084F83D0000BF002084F897
:1016A0003C0000BF00BF71E71FB504460D4920682C
:1016B000884209D1001500900220019003906946EC
:1016C0000948FEF78BFE0CE02068B0F1804F08D18E
:1016D0000720009002200190039069460248FEF71F
:1016E0007DFE1FBD002C01400008014070B504467E
:1016F0000D46164600BF94F83C00012801D1022097
:1017000070BD012084F83C0000BF022084F83D0039
:1017100036B1042E1BD0082E31D00C2E5ED145E000
:101720002946206800F05AFD2068806940F00800D2
:10173000216888612068806920F004002168886140
:1017400020688069296908432168886147E0294643
:10175000206800F075FD2068806940F40060216811
:1017600088612068806920F4806021688861206831
:101770008069296940EA0120216888612FE02946B3
:10178000206800F095FD2068C06940F008002168DD
:10179000C8612068C06920F004002168C861206821
:1017A000C069296908432168C86118E02946206892
:1017B00000F0B4FD2068C06940F400602168C86191
:1017C0002068C06920F480602168C8612068C06911
:1017D000296940EA01202168C86100E000BF00BF1C
:1017E000012084F83D0000BF002084F83C0000BFC9
:1017F00000BF85E710B504460CB9012010BD94F870
:101800003D0028B9002084F83C00204600F00CF888
:10181000022084F83D00211D206800F081FC012099
:1018200084F83D000020E9E708B50168B1F1804F78
:101830000DD100BF0649C96941F00101044AD161D7
:101840001146C96901F00101009100BF00BF08BD48
:101850000010024030B504460D460122294620689A
:1018600000F098FC0A492068884201D1012000E07C
:10187000002028B12068406C40F400402168486492
:101880002068006840F0010021680860002030BD39
:10189000002C014030B504460D4600222946206840
:1018A00000F078FC19492068884201D1012000E04D
:1018B000002090B100BF2068006A41F21111084079
:1018C00050B92068006A8910084028B92068406C27
:1018D00020F400402168486400BF00BF2068006A0F
:1018E00041F21111084050B92068006A891008407F
:1018F00028B92068006820F001002168086000BF56
:10190000012084F83D00002030BD0000002C014083
:1019100010B504460CB9012010BDA06900B100E06B
:1019200000BF94F8390028B9002084F83800204618
:1019300000F028F8242084F839002068C06820F4DA
:1019400000502168C860204600F03CFD2068006916
:1019500020F49040216808612068406920F02A0046
:10196000216848612068C06840F400502168C86060
:101970000020E063202084F8390084F83A00002039
:10198000CAE7000010B586B00446184920688842AE
:1019900029D100BF1648806940F48040144988610D
:1019A0000846806900F48040019000BF00BF4020DD
:1019B0000290022003900320059002A90D48FEF733
:1019C0000DFD8020029000200390049002A9094898
:1019D000FEF704FD00BF0849486840F0E06040F0B1
:1019E0000400486000BF06B010BD00000038014090
:1019F00000100240000C0140000001402DE9F843B6
:101A000004460D4616461F464FF0000994F839006B
:101A100020285CD105B116B90120BDE8F88300BFCC
:101A200094F83800012801D10220F6E7012084F85B
:101A3000380000BF0020E063212084F83900FEF761
:101A400069FE8146A684E6842BE0E08C401EE0849B
:101A5000A068B0F5805F16D14B4600228021204659
:101A6000009700F093FD08B10320D6E7A846B8F828
:101A70000000C0F3080021684860206908B9AD1C67
:101A80000FE06D1C0DE04B460022802120460097A0
:101A900000F07CFD08B10320BFE715F8010B2168B9
:101AA0004860E08C0028D0D14B46002240212046DF
:101AB000009700F06BFD08B10320AEE7202084F80A
:101AC000390000BF002084F8380000BFA5E70220DD
:101AD000A3E700BFFEE7000000B585B000BF3548B2
:101AE000806940F00400334988610846806900F04D
:101AF0000400009000BF00BF00BF0846806940F0AE
:101B0000080088610846806900F00800009000BF66
:101B100000BF002241F208312748FEF7F5FD002200
:101B20004FF400712548FEF7EFFD41F208300190B7
:101B3000012002900220049001A91F48FEF74EFCEC
:101B40004FF4406001901E4802900220039001A9CA
:101B50001A48FEF743FC302001901A4802900120F9
:101B6000039001A91548FEF739FC4FF4007001906D
:101B7000012002900220049001A91048FEF72EFCDB
:101B8000002205210A20FEF764FE0A20FEF754FE1B
:101B9000002205211720FEF75CFE1720FEF74CFE01
:101BA000002205212820FEF754FE2820FEF744FEDF
:101BB00005B000BD0010024000080140000C0140CB
:101BC000000031100000211010B5094809490860D3
:101BD0004FF0FF3048604FF4807106488160FFF796
:101BE0001BFB20B140F2071103A000F007FD10BD60
:101BF00000280040D80100202E2E2F5372632F6D35
:101C000061696E2E6300000000B595B03548364915
:101C100008600720486000213348816044F6206155
:101C2000C16000210161416180218161FFF73AFCBF
:101C300020B14FF48F712DA000F0E0FC4FF48050E4
:101C4000119011A92848FFF796FC20B14FF492712A
:101C500026A000F0D3FC2448FFF7CCFD20B140F2D1
:101C6000291122A000F0CAFC00200F9010900FA9AB
:101C70001D48FFF7E6FB20B14FF498711BA000F060
:101C8000BDFC6020089040F69800099000200A9062
:101C90000B900C900D900E90082208A91248FFF7A7
:101CA00025FD20B14FF49E7110A000F0A7FC00208C
:101CB000019002900390049005904FF4005006901C
:101CC0000020079001A90848FFF77CFB20B14FF4E2
:101CD000A47106A000F092FC0348FFF7E5FC15B0E4
:101CE00000BD0000002C0140EC0100202E2E2F53DF
:101CF00072632F6D61696E2E6300000000B589B0BC
:101D00004FF080402949086007204860002127489B
:101D1000816044F62061C160002101618021816100
:101D2000FFF768FD20B14FF4AF7121A000F066FC11
:101D300000200790089007A91C48FFF782FB20B1FC
:101D400040F265111AA000F059FC6020009040F2AA
:101D50004C400190002002900490002269461348F4
:101D6000FFF7C4FC20B14FF4B77111A000F046FC9E
:101D7000042269460D48FFF7B9FC20B140F2731107
:101D80000BA000F03BFC40F26C7001900822694609
:101D90000648FFF7ABFC20B140F2791104A000F037
:101DA0002DFC0248FFF780FC09B000BD2C0200208A
:101DB0002E2E2F5372632F6D61696E2E630000000B
:101DC00000B587B019481A49086040F21F304860D2
:101DD00000211748816041F27071C16000210161EA
:101DE00080218161FFF75EFB20B140F28F1111A0CD
:101DF00000F004FC4FF48050039003A90C48FFF757
:101E0000BAFB20B140F295110AA000F0F7FB0020C8
:101E10000190029001A90648FFF713FB20B14FF48F
:101E2000CE7104A000F0EAFB07B000BD0004004042
:101E30006C0200202E2E2F5372632F6D61696E2E5F
:101E40006300000000B587B019481A49086040F2E5
:101E50001F30486000211748816041F27071C160F5
:101E60000021016180218161FFF71CFB20B14FF44B
:101E7000D87111A000F0C2FB4FF48050039003A969
:101E80000C48FFF778FB20B14FF4DB710AA000F09B
:101E9000B5FB00200190029001A90648FFF7D1FA96
:101EA00020B140F2BD1104A000F0A8FB07B000BDB6
:101EB00000080040AC0200202E2E2F5372632F6DBD
:101EC00061696E2E6300000010B50C480C49086073
:101ED0004FF4E1304860002109488160C160016130
:101EE0000C21416100218161C161FFF711FD20B129
:101EF0004FF4E87103A000F081FB10BD00380140F1
:101F0000EC0200202E2E2F5372632F6D61696E2E0E
:101F10006300000000BFFEE7704700000248006851
:101F2000C0F30220704700000CED00E010B500285F
:101F300007DA0A07140E054A00F00F031B1FD454DA
:101F400003E00A07130E024A135410BD18ED00E017
:101F500000E400E008B508490968C9084FF47A723E
:101F6000B1FBF2F14143009100BF00BF00994A1E4E
:101F700000920029F9D108BD7C00002070B504460C
:101F80000025FEF7C7FB054607E0FEF7C3FB401B35
:101F9000B0F57A7F01D9032070BD2068406800F059
:101FA00020000028F1D02068406840F0100021682F
:101FB00048600020F0E770B50446002520684068BE
:101FC00020F0100021684860FEF7A4FB054607E0FA
:101FD000FEF7A0FB401BB0F57A7F01D9032070BD4E
:101FE0002068406800F020000028F1D00020F6E7CB
:101FF00000210B48FFF72EFC04210948FFF72AFCBB
:1020000008210748FFF726FC00BF06480068406A21
:102010000549086001F068F8142000F027FDF4E796
:102020002C0200206C0200201400002010B5FEF7E6
:1020300077FB01F087FC012801D001F039FC10BDCD
:1020400010B594B00A200A9001200E9010200F9035
:1020500001201090002011900AA8FEF7BDFE18B1D3
:10206000D82119A000F0CAFA0F2005900020069090
:10207000079008900990002105A8FEF76BFD18B1A4
:10208000E62111A000F0BAFA01200190400202906E
:1020900001A8FEF7C7FC18B1ED210BA000F0AEFAC5
:1020A000FEF72AFE4FF47A71B0FBF1F42046FFF7F9
:1020B0006FF90420FFF758F900220F21501EFEF798
:1020C000C8FB14B010BD00002E2E2F5372632F6D6D
:1020D00061696E2E630000000D48016841F0010146
:1020E000016041680B4A1140416001680A4A114091
:1020F0000160016821F480210160416821F4FE0142
:1021000041604FF41F0181600449C00308607047BB
:10211000001002400000FFF8FFFFF6FE08ED00E0AF
:1021200000220268184B984208D0B0F1804F05D0C9
:10213000164B984202D0164B984203D122F07002FF
:102140004B681A43104B984208D0B0F1804F05D02D
:102150000E4B984202D00E4B984203D122F44072AB
:10216000CB681A4322F080024B691A4302608B68E5
:10217000C3620B688362044B984201D10B6903630D
:102180000123436170470000002C0140000400401F
:102190000008004030B50023012404FA01F3046A6A
:1021A0009C430462046A02FA01F52C43046230BDC8
:1021B00030B50C460021816821F47F4142EA0325B5
:1021C00025432943816030BD0A460021816821F002
:1021D000700142F0070319438160704730B5002455
:1021E00000220023056A25F001050562026A4368A2
:1021F000846924F0700424F003040D682C4322F059
:1022000002028D682A430D4DA84206D100BF22F07C
:102210000802CD682A4322F00402084DA84207D1E3
:1022200023F4807323F400734D692B438D692B4392
:10223000436084614D684563026230BD002C0140FB
:1022400030B5002400220023056A25F01005056240
:10225000026A4368846924F4E04424F440740D68FD
:1022600044EA052422F020028D6842EA05120F4D4F
:10227000A84207D100BF22F08002CD6842EA0512D1
:1022800022F04002094DA84209D123F4806323F4CF
:1022900000634D6943EA85038D6943EA8503436022
:1022A00084614D688563026230BD0000002C0140EE
:1022B00030B5002400220023056A25F480750562EC
:1022C000026A4368C46924F0700424F003040D68B2
:1022D0002C4322F400728D6842EA05220E4DA8427A
:1022E00007D100BF22F40062CD6842EA052222F441
:1022F0008062094DA84209D123F4805323F400538E
:102300004D6943EA05138D6943EA05134360C461CF
:102310004D68C563026230BD002C014030B500221B
:1023200000230024056A25F480550562036A446889
:10233000C26922F4E04222F440720D6842EA0522AA
:1023400023F400538D6843EA0533074DA84204D1B6
:1023500024F480444D6944EA85144460C2614D68A8
:102360000564036230BD0000002C014030B50B460F
:10237000144600210022026A056A25F00105056263
:10238000816921F0F00141EA041122F00A021A43A6
:102390008161026230BD30B50B4614460021002237
:1023A000056A25F0100505628169026A21F4704111
:1023B00041EA043122F0A00242EA03128161026282
:1023C00030BD00002DE9F041044600252068006979
:1023D00020F44050E1680843216808612169A06841
:1023E00008436169084305432068C06841F20C61F5
:1023F000884328432168C8602068406920F4407001
:10240000A1690843216848615F49206888425CD11E
:10241000FEF788FC00EBC00101EB00106168890049
:10242000B0FBF1F6FEF77EFC00EBC00101EB001003
:1024300061688900B0FBF1F06421B0FBF1F000EBC2
:10244000C00101EB0010A6EB8000322101EB00106F
:102450006421B0FBF1F000F0F006FEF763FC00EB46
:10246000C00101EB001061688900B0FBF1F064214C
:10247000B0FBF1F006EB0016FEF754FC00EBC001D8
:1024800001EB001061688900B0FBF1F7FEF74AFC30
:1024900000EBC00101EB001061688900B0FBF1F0B6
:1024A0006421B0FBF1F000EBC00101EB0010A7EBE1
:1024B0008000322101EB00106421B0FBF1F000F04C
:1024C0000F003044216888605BE0FEF71BFC00EBE6
:1024D000C00101EB001061688900B0FBF1F6FEF766
:1024E00011FC00EBC00101EB001061688900B0FB3A
:1024F000F1F06421B0FBF1F000EBC00101EB001042
:10250000A6EB8000322101EB00106421B0FBF1F05A
:1025100000F0F006FEF7F6FB00EBC00101EB001047
:1025200061688900B0FBF1F06421B0FBF1F006EBCB
:102530000016FEF7E7FB00EBC00101EB001061683D
:102540008900B0FBF1F7FEF7DDFB00EBC00101EB0A
:10255000001061688900B0FBF1F06421B0FBF1F07C
:1025600000EBC00101EB0010A7EB8000322101EB72
:1025700000106421B0FBF1F000F00F00304421683E
:102580008860BDE8F0810000003801402DE9F0418D
:1025900004460D4617469846069E21E0701CF8B189
:1025A0002EB1FEF7B7F8A0EB0800B04218D92068AA
:1025B000C06820F4D0702168C8602068406920F0AD
:1025C000010021684861202084F8390084F83A002D
:1025D00000BF002084F8380000BF0320BDE8F08170
:1025E000206800682840A84201D1012000E00020B6
:1025F000B842D3D00020F1E700BFFEE700BFFEE7FE
:102600000FB4054B10B503A9044A029800F017F85F
:1026100010BC5DF814FB00005D270008D401002009
:1026200002E008C8121F08C1002AFAD1704770479B
:10263000002001E001C1121F002AFBD170472DE9E3
:10264000F84F9946924688460546002706E0252819
:102650000AD051464A4690476D1C7F1C28780028B6
:10266000F5D13846BDE8F88F002315F8011F18464C
:102670002E2915D115F8011F04232A290DD06FF03A
:102680002F022978A1F13004092C09D800EB800031
:1026900002EB400008446D1CF3E758F8040B6D1C76
:1026A0002A78002ADDD0632A07D0732A0FD010467B
:1026B00051464A4690477F1C2AE018F8042B8DF8B3
:1026C000002000218DF801106E46012103E058F82A
:1026D000046B4FF0FF315A074FF0000401D409E0BA
:1026E000641C84420BDA8C42FADB325D002AF7D19B
:1026F00005E0641C8C42FCDB305D0028F9D12744E6
:1027000004E016F8010B51464A469047641EF8D281
:102710006D1CA3E70F4989780E4AD278914200DBFD
:1027200070470C4909780C4A42F821000949097898
:10273000491C084A117011468978491C917011464C
:102740000978D278914202DB0021024A117000BF61
:10275000E6E70000CE0100202C10002013B50C4647
:102760004FF6FF73012269460248FFF747F90098C8
:102770001CBD0000EC02002010B5002400F0C0F8E1
:10278000012801D1204610BD0B4840780B4951F873
:10279000204009484078401C074948700846807826
:1027A000401E887008464078C978884202DB0020C5
:1027B000014948702046E6E7CE0100202C10002099
:1027C00070B5FF2548488068062874D2DFE800F01D
:1027D000032C3B4D76854548007801280ED14FF4F7
:1027E000FA7000F043F900F095F8012804D10020B8
:1027F0003E490870002500E0012571E0FFF7BCFFAD
:102800000446012C03D13A49087001250BE0042C41
:1028100008D100F07FF8012804D001203349087066
:10282000012500E000255BE0FDF774FF31490968F0
:10283000401A3149086008460068322801D304254F
:1028400000E000254CE000F065F8012805D127489C
:102850000078012801D1072542E000F073F8012833
:1028600001D1062500E000253AE0FDF753FF21499C
:102870000968401A2049086008460068B0F5FA7FE8
:102880001BD300F047F8012803D000F05BF80128C3
:1028900001D1002524E015480078012803D117490B
:1028A000087003251CE012480078012804D1134960
:1028B0000870022514E012E0002511E0FDF72AFF60
:1028C0000C490968401A0C4908600846006832281B
:1028D00001D3052500E0002502E0002500E000BF4F
:1028E00000BF284670BD00001C10002062010020BF
:1028F00061010020640100206801002060010020C7
:1029000001200349897801B900E0002070470000E8
:10291000CE01002010B5012408480078012804D019
:1029200020210748FDF7E8FE08B9012400E0002453
:10293000002002490870204610BD0000CD01002093
:10294000000C014010B5012408480078012804D08B
:1029500010210748FDF7D0FE08B9012400E000244B
:10296000002002490870204610BD0000CC01002064
:10297000000C01408AB0FDF7DFFEFFF761FBFFF7B7
:10298000ABF8FFF721F9FFF7B9F9FFF719FAFFF7ED
:102990003BF9FFF757FAFFF797FA14220C4905A8FD
:1029A000FDF70CFC002105A800F071F8094908604A
:1029B0001422074914316846FDF700FC00216846DF
:1029C00000F065F80449086000F05CF800BFFEE71D
:1029D000B03B00080C000020100000200146002041
:1029E000842901D0CA1C10447047000010B5002291
:1029F0004FF400710448FDF787FE012211020248DE
:102A0000FDF782FE10BD00000008014010B5012254
:102A100051020548FDF778FE00224FF4807102480C
:102A2000FDF772FE10BD00000008014010B5012244
:102A300051020448FDF768FE012211020148FDF72A
:102A400063FE10BD0008014000F0A6FC03A0FFF7E4
:102A5000D7FD00BF00F0C2FCFCE70000496E6974BE
:102A60002066696E6973680A0000000070B504464C
:102A700025460DB1294600E00121084600F008FE78
:102A8000002070BD10B500F031FE002010BDFEB575
:102A900004460D46B4F90800FFF7A0FF064602A859
:102AA000CDE90060238A9AB22B46D4E9001000F0E9
:102AB00019FF012801D00020FEBD0298FCE70000AC
:102AC0002DE9F04105460E461C4807681C48006881
:102AD000001D00F0CEFB50B91948006890F82C108A
:102AE0000120884017490968814316480160681C25
:102AF00038B936B112480168091D134800F040FC8E
:102B00001AE07C190E4800684460BC4207D20C48A9
:102B10000168091D0D48006800F018FC0CE0084829
:102B20000168091D0A48006800F010FC09480068A7
:102B3000844201D207480460BDE8F08154000020BF
:102B4000400000205800002008100020480000200D
:102B5000440000207000002010B5044600F04EFC38
:102B600023480068401C224908602248006840B998
:102B7000204804600846006801280DD100F02AF9B9
:102B80000AE01D48006838B91A480068C06AE16A5E
:102B9000884201D81748046018480068401C17494B
:102BA000086094F82C1001208840154909680843F2
:102BB00013490860E16A01EB8101124A02EB8100CE
:102BC000211D00F0DDFB00F043FC0B48006868B1FC
:102BD00008480068C06AE16A884207D24FF0805016
:102BE00009490860BFF34F8FBFF36F8F10BD00001E
:102BF00050000020400000205C0000206C000020FD
:102C0000580000202C0F002004ED00E070B523E0F8
:102C100000F0B0FD1348006808B9012000E0002072
:102C2000054600F043FFBDB900F0E8FB0D48C06861
:102C3000C468201D00F01DFB0B480068401E0A49B7
:102C400008600A480068401E0849086000F000FC5F
:102C5000204600F00DF800BF044800680028D7D1D6
:102C600070BD0000F40F0020500000204C00002038
:102C700010B50446206B00F009FC204600F006FC6D
:102C800010BD000030B54FF44063174800F0070452
:102C90002CB1C01D20F00700134C041B1B1B024667
:102CA000124C22600024114D6C60D018083820F0BE
:102CB00007000F4C206000240D4D2D686C600C4DFA
:102CC0002D682C601146441A4C60094C24680C6035
:102CD000084D4C682C60084D4C682C604FF0004447
:102CE000064D2C6030BD00002C0300201C0000208D
:102CF000240000202C0000202800002030000020AC
:102D000000BFFFF783FF064800680128F9D94FF09C
:102D1000805004490860BFF34F8FBFF36F8FF0E717
:102D20002C0F002004ED00E02DE9FF5F81460F46E7
:102D30009246DDE90E6B109CAAF10100216B01EBBC
:102D4000800828F0070808F0070008B9012000E013
:102D5000002050B900BF502080F31188BFF34F8F7F
:102D6000BFF36F8F00BF00BFFEE7002507E0795D6E
:102D700004F134004155785D00B902E06D1C102D5E
:102D8000F5D300BF002143200155072E00D30626AE
:102D9000E66266640020A064201D00F0D4FA04F10D
:102DA000180000F0D0FA2461C6F10700A061646247
:102DB0000020E06484F8500049464046039A00F041
:102DC0004DF92060BBF1000F01D0CBF80040BDE809
:102DD000FF9F000010B5002407E004EB84010F4AB8
:102DE00002EB810000F0A2FA641C072CF5D30C481A
:102DF00000F09CFA0B4800F099FA0B4800F096FAA4
:102E00000A4800F093FA0A4800F090FA0448094989
:102E1000086004480849086010BD00002C0F00201D
:102E2000B80F0020CC0F0020E00F0020F40F00208E
:102E300008100020440000204800002010B5014682
:102E4000164800E0006803688B42FBD302464368E3
:102E500013448B4204D143684C68234443600146C9
:102E60000A464B6813440468A34211D10C4C036812
:102E70002468A34208D04B680468646823444B600C
:102E800003681B680B6005E0054B1B680B6001E0E5
:102E900003680B60884200D0016010BD1C00002058
:102EA000240000200A490968096809B9012100E0E5
:102EB000002121B14FF0FF31064A116006E00449BC
:102EC0000968C968C868034A416811607047000012
:102ED00044000020700000200E480068401C08B923
:102EE000012000E0002050B900BF502080F311887D
:102EF000BFF34F8FBFF36F8F00BF00BFFEE700BF70
:102F0000502080F31188BFF34F8FBFF36F8F00BF46
:102F100000BFFEE7340000200146C868704700008B
:102F20002DE9F04104464FF0000800F023FC46482C
:102F3000006808B9FFF7A6FE444800682040002852
:102F40006BD1D4B1083404F00700B0B104F007002D
:102F5000C0F10800044404F0070008B9012000E0B3
:102F6000002050B900BF502080F31188BFF34F8F6D
:102F7000BFF36F8F00BF00BFFEE7002C4DD0344879
:102F80000068844249D8334E3046056801E02E4639
:102F90002D686868A04202D228680028F7D12A4824
:102FA0000068854239D0306800F108082868306030
:102FB0006868001B102819D92F1907F0070008B9F5
:102FC000012000E0002050B900BF502080F311889C
:102FD000BFF34F8FBFF36F8F00BF00BFFEE768687E
:102FE000001B78606C603846FFF728FF1849686856
:102FF0000968081A164908600846006816490968F1
:10300000884203D212480068134908600F49686873
:103010000968084368600020286000F047FD08F058
:10302000070008B9012000E0002050B900BF50207F
:1030300080F31188BFF34F8FBFF36F8F00BF00BFC6
:10304000FEE74046BDE8F08124000020300000206B
:10305000280000201C0000202C000020001F4FF042
:1030600080730360001F21F001030360001F034B06
:10307000036014380260203870470000D92E000821
:1030800010B540F24C4000F007F810BD10B540F20A
:10309000947000F001F810BD30B587B004460025EB
:1030A00000F0ACF908210F48FEF7F4FB6020009017
:1030B000019400200290039004900590069000BFB8
:1030C000082269460748FEF711FB0028F8D100BF27
:1030D00008210448FEF7BEFB0028F9D100F0B8F93A
:1030E00007B030BDEC01002010B500247FE004EBF8
:1030F0004400414901EB001090F8280004EB440122
:103100003D4A02EB011181F8290004EB440011460D
:1031100001EB001090F82900022832D104EB4400A2
:1031200001EB001090F82000401C04EB440102EB7E
:10313000011181F8200004EB4400114601EB00105E
:1031400090F8200014280CDC04EB440001EB001084
:1031500090F82A0004EB440102EB011181F82900E8
:1031600017E0002004EB4401234A02EB011181F82F
:103170002000022004EB440102EB011181F8290038
:1031800007E0002004EB44011B4A02EB011181F827
:103190002000204600F032F804EB4400164901EB11
:1031A000001090F8290004EB4401134A02EB0111CE
:1031B00081F82A0004EB4400114601EB0010C069BD
:1031C00032280BD204EB440001EB0010C069401C14
:1031D00004EB440102EB0111C86106E0322004EB6C
:1031E0004401054A02EB0111C861601CC4B2022C03
:1031F000FFF67DAF10BD00006C01002010B5044645
:1032000004EB4400134901EB001090F8290000BBC7
:1032100004EB440001EB001090F82A00012818D1BB
:1032200004EB440001EB0010C069322811D30020E8
:1032300004EB4401074A02EB0111C86104EB4401AD
:1032400002EB0111486AFFF765FA034903A0FFF793
:10325000D7F910BD6C010020473C000825730A0017
:10326000014688687047014648687047014608680B
:10327000704701460A69D1E901309860D1E901033C
:1032800058605068884201D1886850600020086109
:103290001068401E1060106870472DE9F05F82468C
:1032A0000D4600260027B046B1465046FFF7D8FF2E
:1032B00083465046FFF730FE0746002408E057F8E3
:1032C0003400584503D107EBC400466805E0641C90
:1032D0005046FFF7CBFFA042F1D800BF00240BE01F
:1032E00056F83400A84206D106EBC400D0F804809A
:1032F000D8F8049005E0641C5046FFF7B4FFA042E4
:10330000EED800BFB9F1000F05D0C8475046D8F835
:10331000001000F002F8BDE8F09F8160704710B522
:10332000029C036044608260C16010BD00F108012E
:1033300041604FF0FF31816000F10801C16001611F
:1033400000210160704700210161704710B50246FD
:103350000B685C1C0CB9106907E002F1080000E082
:103360004068446824689C42FAD944684C604C68C0
:10337000A160886041600A611468641C146010BD1B
:1033800042684A6093688B609368596091600861F5
:1033900003685B1C0360704708B50B48FEF7DCF858
:1033A0000A48FEF7D9F80A48FEF7D6F8FFF768FE94
:1033B000FFF73CFB03200623002206490090064845
:1033C000FFF7ADFF08BD0000EC0100206C020020FB
:1033D000AC0200202C0100201C10002010B5FFF7CB
:1033E000EFF904490860084601680348FFF755FFF4
:1033F00010BD00005C0100201C10002000BF502008
:1034000080F31188BFF34F8FBFF36F8F00BF0E485B
:103410000068401C0C49086008460068012812D169
:103420000A480068C0B208B9012000E0002050B985
:1034300000BF502080F31188BFF34F8FBFF36F8F11
:1034400000BF00BFFEE770473400002004ED00E03D
:103450000D48006850B900BF502080F31188BFF3B9
:103460004F8FBFF36F8F00BF00BFFEE706480068B5
:10347000401E054908600846006820B9002080F316
:10348000118800BF00BF70473400002070B50646A9
:103490003546002E3FD0083D2C461F49606809681C
:1034A000084008B1012000E0002050B900BF5020C2
:1034B00080F31188BFF34F8FBFF36F8F00BF00BF42
:1034C000FEE7206808B9012000E0002050B900BFE5
:1034D000502080F31188BFF34F8FBFF36F8F00BF71
:1034E00000BFFEE70C4960680968084098B1206891
:1034F00088B90949606809688843606000F03AF952
:103500000649606809680844044908602046FFF7D6
:1035100095FC00F0CBFA70BD3000002028000020A0
:10352000064800684FF47A71B0FBF1F0401E4FF08E
:10353000E021486107200861704700007C000020FE
:1035400010B509480078012806D100200649087006
:10355000FDF7E0F805490860FFF748FA044905A0BF
:10356000FFF74EF810BD000060010020640100204C
:103570002A3C0008257328290A00000010B5FFF72F
:1035800055FA002003490870034904A0FFF738F8F2
:1035900010BD000062010020383C00082573282976
:1035A0000A00000010B509480078012806D1002063
:1035B00006490870FDF7AEF805490860FFF726FADE
:1035C000044905A0FFF71CF810BD000060010020B1
:1035D00064010020FD3B0008257328290A00000033
:1035E00010B50648007820B9012004490870FFF79B
:1035F00047FD034903A0FFF703F810BD6301002056
:10360000093C0008257328290A00000010B50C4861
:103610000078012804D1002009490870FFF736FD21
:1036200008480078012806D1002006490870FDF7F7
:1036300071F805490860054905A0FEF7E1FF10BDD6
:103640006301002060010020640100201A3C000892
:10365000257328290A00000010B5FFF7E7F90020BC
:103660000549087001200549087005490870054999
:1036700005A0FEF7C5FF10BD610100206301002019
:1036800060010020F03B0008257328290A00000093
:1036900070B504460025D4B11248006808B901206D
:1036A00000E0002050B900BF502080F31188BFF324
:1036B0004F8FBFF36F8F00BF00BFFEE700F05AF8D7
:1036C00000212046FFF7FCF900F0F0F905463DB96E
:1036D0004FF0805004490860BFF34F8FBFF36F8FE6
:1036E00070BD00007800002004ED00E01CB51A4811
:1036F00000210B468022CDE9001018A1194800F0E6
:10370000F1F80446012C15D100BF502080F3118838
:10371000BFF34F8FBFF36F8F00BF4FF0FF301249E1
:10372000086001201149086000201149086000F07C
:103730006FF810E0601C08B1012000E0002050B9D3
:1037400000BF502080F31188BFF34F8FBFF36F8FFE
:1037500000BF00BFFEE71CBD7400002049444C457B
:1037600000000000012D0008700000205C00002017
:103770005400002002480068401C0149086070475E
:10378000780000201D48006818B101201C4908601D
:1037900032E000201A4908601A480068B0FA80F048
:1037A000C0F11F0101EB8100174A52F8200008B157
:1037B000012000E0002050B900BF502080F31188A4
:1037C000BFF34F8FBFF36F8F00BF00BFFEE701EB6A
:1037D00081020D4B03EB820042685268426000F1A7
:1037E00008024368934202D14268526842604268CC
:1037F000D268064B1A6000BF7047000078000020B6
:1038000064000020580000202C0F00204000002001
:103810001CB52248014609780191FF21024611702A
:103820000146097800919DF8001001F050011C4AF2
:10383000117007211B4A116009E01A490968491EE5
:10384000184A11609DF800104906090E00919DF874
:10385000001001F080018029EFD0124909680902A7
:10386000104A11601146098801F4E06111600B4AA9
:10387000019911700C48006840F470000A49086012
:103880000846006840F070400860FFF749FE0020DD
:1038900006490860FCF746FC00201CBD00E400E07F
:1038A000380000203C00002020ED00E03400002023
:1038B00010B500BF502080F31188BFF34F8FBFF3C6
:1038C0006F8F00BF00F04EF818B14FF080500449E0
:1038D000086000BF002080F3118800BF10BD000009
:1038E00004ED00E02DE9FF4F85B08046894617467C
:1038F000DDE912ABB800FFF713FB064656B15420C2
:10390000FFF70EFB04460CB1266304E03046FFF7D8
:10391000BDFD00E000247CB10020CDE900ABCDE985
:1039200002403A4649464046089BFFF7FDF92046CB
:10393000FFF712F9012501E04FF0FF35284609B0E5
:10394000BDE8F08F0549096809B9012005E004497F
:10395000096809B9022000E0002070475C000020DF
:10396000780000202DE9F0414FF00008444800683D
:10397000002877D143480068451C4248056015BBC4
:1039800041480068006808B9012000E0002050B9F3
:1039900000BF502080F31188BFF34F8FBFF36F8FAC
:1039A00000BF00BFFEE7384807683848006836495E
:1039B00008603648076036480068401C3449086093
:1039C000FFF770FA00BF3348006885423CD300BF60
:1039D0002D480068006808B9012000E0002020B1EF
:1039E0004FF0FF302B4908602DE027480068C06881
:1039F000C4686668B54202D22648066023E0201DEE
:103A0000FFF737FCA06A18B104F11800FFF731FC8A
:103A100094F82C10012088401F49096808431E496A
:103A20000860E16A01EB81011C4A02EB8100211D63
:103A3000FFF7A6FC1A49E06A0968C96A8842C7D339
:103A40004FF00108C4E700BF15480068C06A00EBEA
:103A50008000124951F82000012801D94FF00108D7
:103A600005E0FFE70F480068401C0E4908600E485B
:103A7000006808B14FF001084046BDE8F081000041
:103A8000780000205400002044000020480000205E
:103A90006800002070000020580000202C0F00203B
:103AA00040000020600000206400002070B5002469
:103AB00000263648006850B900BF502080F31188B6
:103AC000BFF34F8FBFF36F8F00BF00BFFEE7FFF75D
:103AD00095FC2E480068401E2C4908600846006886
:103AE00000284FD12A48006800284BD024E02948FC
:103AF000C068C46804F11800FFF7BBFB201DFFF786
:103B0000B8FB94F82C100120884023490968084329
:103B100021490860E16A01EB8101204A02EB810042
:103B2000211DFFF72DFC1E49E06A0968C96A884219
:103B300002D301201B4908601648006808B901201B
:103B400000E000200028D2D00CB1FFF7ABF91648F6
:103B5000056865B100BFFFF705FF10B101201149ED
:103B600008606D1E002DF6D100200F4908600D4839
:103B7000006838B1012630070C490860BFF34F8F49
:103B8000BFF36F8FFFF764FC304670BD78000020F4
:103B900050000020E00F0020580000202C0F0020D3
:103BA00040000020640000206000002004ED00E0E0
:103BB0006C3C0008F11F000800000000000000003D
:103BC000C8000000603C0008492A0008000000000E
:103BD00000000000C800000000000000000000001D
:103BE00001020304060708090000000001020304A3
:103BF0007653746F7048616E646C654600765275DA
:103C00006E48616E646C65460076536572766F4FE0
:103C1000666648616E646C65460076536572766FC1
:103C20004F6E48616E646C654600765265736574CC
:103C300048616E646C6546007652737443686B48E5
:103C4000616E646C6546007369676E616C46756E83
:103C50006374696F6E48616E646C654600000000B5
:103C60006D6F746F725461736B0000006465666100
:103C7000756C745461736B00983C00080000002060
:103C8000D8010000040200082C3D0008D8010020E3
:103C90009812000030260008413210022B011AAAA7
:103CA0000101450418A24A041359362A089413A5A1
:103CB000353308021AE10832031A0D1829351A4162
:103CC0001032051A7D08292822AC42201A940829AE
:103CD000205AA4101A9C085A061832075ABC1829F0
:103CE000202958292029585AB418294829586940A8
:103CF00069182940411AC40829705AD4405AE4402E
:103D00005AFC784B1401401A2408011159EE321460
:103D10003212320CF20A295C411B6C02400A200864
:0C3D2000305953112AAC304162100000F1
:04000005080000ED02
:00000001FF
